{
    "contractName": "ERC20Token",
    "abi": [
        {
            "inputs": [
                {
                    "internalType": "uint256",
                    "name": "_initialAmount",
                    "type": "uint256"
                },
                {
                    "internalType": "string",
                    "name": "_tokenName",
                    "type": "string"
                },
                {
                    "internalType": "uint8",
                    "name": "_decimalUnits",
                    "type": "uint8"
                },
                {
                    "internalType": "string",
                    "name": "_tokenSymbol",
                    "type": "string"
                }
            ],
            "stateMutability": "nonpayable",
            "type": "constructor"
        },
        {
            "anonymous": false,
            "inputs": [
                {
                    "indexed": true,
                    "internalType": "address",
                    "name": "tokenOwner",
                    "type": "address"
                },
                {
                    "indexed": true,
                    "internalType": "address",
                    "name": "spender",
                    "type": "address"
                },
                {
                    "indexed": false,
                    "internalType": "uint256",
                    "name": "tokens",
                    "type": "uint256"
                }
            ],
            "name": "Approval",
            "type": "event"
        },
        {
            "anonymous": false,
            "inputs": [
                {
                    "indexed": true,
                    "internalType": "address",
                    "name": "from",
                    "type": "address"
                },
                {
                    "indexed": true,
                    "internalType": "address",
                    "name": "to",
                    "type": "address"
                },
                {
                    "indexed": false,
                    "internalType": "uint256",
                    "name": "tokens",
                    "type": "uint256"
                }
            ],
            "name": "Transfer",
            "type": "event"
        },
        {
            "inputs": [
                {
                    "internalType": "address",
                    "name": "_owner",
                    "type": "address"
                },
                {
                    "internalType": "address",
                    "name": "_spender",
                    "type": "address"
                }
            ],
            "name": "allowance",
            "outputs": [
                {
                    "internalType": "uint256",
                    "name": "remaining",
                    "type": "uint256"
                }
            ],
            "stateMutability": "view",
            "type": "function"
        },
        {
            "inputs": [
                {
                    "internalType": "address",
                    "name": "",
                    "type": "address"
                },
                {
                    "internalType": "address",
                    "name": "",
                    "type": "address"
                }
            ],
            "name": "allowed",
            "outputs": [
                {
                    "internalType": "uint256",
                    "name": "",
                    "type": "uint256"
                }
            ],
            "stateMutability": "view",
            "type": "function"
        },
        {
            "inputs": [
                {
                    "internalType": "address",
                    "name": "_spender",
                    "type": "address"
                },
                {
                    "internalType": "uint256",
                    "name": "_value",
                    "type": "uint256"
                }
            ],
            "name": "approve",
            "outputs": [
                {
                    "internalType": "bool",
                    "name": "success",
                    "type": "bool"
                }
            ],
            "stateMutability": "nonpayable",
            "type": "function"
        },
        {
            "inputs": [
                {
                    "internalType": "address",
                    "name": "_owner",
                    "type": "address"
                }
            ],
            "name": "balanceOf",
            "outputs": [
                {
                    "internalType": "uint256",
                    "name": "balance",
                    "type": "uint256"
                }
            ],
            "stateMutability": "view",
            "type": "function"
        },
        {
            "inputs": [
                {
                    "internalType": "address",
                    "name": "",
                    "type": "address"
                }
            ],
            "name": "balances",
            "outputs": [
                {
                    "internalType": "uint256",
                    "name": "",
                    "type": "uint256"
                }
            ],
            "stateMutability": "view",
            "type": "function"
        },
        {
            "inputs": [],
            "name": "decimals",
            "outputs": [
                {
                    "internalType": "uint8",
                    "name": "",
                    "type": "uint8"
                }
            ],
            "stateMutability": "view",
            "type": "function"
        },
        {
            "inputs": [],
            "name": "name",
            "outputs": [
                {
                    "internalType": "string",
                    "name": "",
                    "type": "string"
                }
            ],
            "stateMutability": "view",
            "type": "function"
        },
        {
            "inputs": [],
            "name": "symbol",
            "outputs": [
                {
                    "internalType": "string",
                    "name": "",
                    "type": "string"
                }
            ],
            "stateMutability": "view",
            "type": "function"
        },
        {
            "inputs": [],
            "name": "totSupply",
            "outputs": [
                {
                    "internalType": "uint256",
                    "name": "",
                    "type": "uint256"
                }
            ],
            "stateMutability": "view",
            "type": "function"
        },
        {
            "inputs": [],
            "name": "totalSupply",
            "outputs": [
                {
                    "internalType": "uint256",
                    "name": "totSupply",
                    "type": "uint256"
                }
            ],
            "stateMutability": "view",
            "type": "function"
        },
        {
            "inputs": [
                {
                    "internalType": "address",
                    "name": "_to",
                    "type": "address"
                },
                {
                    "internalType": "uint256",
                    "name": "_value",
                    "type": "uint256"
                }
            ],
            "name": "transfer",
            "outputs": [
                {
                    "internalType": "bool",
                    "name": "success",
                    "type": "bool"
                }
            ],
            "stateMutability": "nonpayable",
            "type": "function"
        },
        {
            "inputs": [
                {
                    "internalType": "address",
                    "name": "_from",
                    "type": "address"
                },
                {
                    "internalType": "address",
                    "name": "_to",
                    "type": "address"
                },
                {
                    "internalType": "uint256",
                    "name": "_value",
                    "type": "uint256"
                }
            ],
            "name": "transferFrom",
            "outputs": [
                {
                    "internalType": "bool",
                    "name": "success",
                    "type": "bool"
                }
            ],
            "stateMutability": "nonpayable",
            "type": "function"
        }
    ],
    "bytecode": "60806040523480156200001157600080fd5b5060405162000a3238038062000a32833981016040819052620000349162000203565b336000908152602081815260409091208590556002859055835162000060916003919086019062000090565b506004805460ff191660ff841617905580516200008590600590602084019062000090565b5050505050620002ce565b8280546200009e9062000292565b90600052602060002090601f016020900481019282620000c257600085556200010d565b82601f10620000dd57805160ff19168380011785556200010d565b828001600101855582156200010d579182015b828111156200010d578251825591602001919060010190620000f0565b506200011b9291506200011f565b5090565b5b808211156200011b576000815560010162000120565b634e487b7160e01b600052604160045260246000fd5b600082601f8301126200015e57600080fd5b81516001600160401b03808211156200017b576200017b62000136565b604051601f8301601f19908116603f01168101908282118183101715620001a657620001a662000136565b81604052838152602092508683858801011115620001c357600080fd5b600091505b83821015620001e75785820183015181830184015290820190620001c8565b83821115620001f95760008385830101525b9695505050505050565b600080600080608085870312156200021a57600080fd5b845160208601519094506001600160401b03808211156200023a57600080fd5b62000248888389016200014c565b94506040870151915060ff821682146200026157600080fd5b6060870151919350808211156200027757600080fd5b5062000286878288016200014c565b91505092959194509250565b600181811c90821680620002a757607f821691505b602082108103620002c857634e487b7160e01b600052602260045260246000fd5b50919050565b61075480620002de6000396000f3fe608060405234801561001057600080fd5b50600436106100b45760003560e01c80635c658165116100715780635c6581651461015d57806370a082311461018857806381fbf0a5146101b157806395d89b41146101ba578063a9059cbb146101c2578063dd62ed3e146101d557600080fd5b806306fdde03146100b9578063095ea7b3146100d757806318160ddd146100fa57806323b872dd1461010b57806327e235e31461011e578063313ce5671461013e575b600080fd5b6100c161020e565b6040516100ce919061052c565b60405180910390f35b6100ea6100e536600461059d565b61029c565b60405190151581526020016100ce565b60005b6040519081526020016100ce565b6100ea6101193660046105c7565b610308565b6100fd61012c366004610603565b60006020819052908152604090205481565b60045461014b9060ff1681565b60405160ff90911681526020016100ce565b6100fd61016b366004610625565b600160209081526000928352604080842090915290825290205481565b6100fd610196366004610603565b6001600160a01b031660009081526020819052604090205490565b6100fd60025481565b6100c1610462565b6100ea6101d036600461059d565b61046f565b6100fd6101e3366004610625565b6001600160a01b03918216600090815260016020908152604080832093909416825291909152205490565b6003805461021b90610658565b80601f016020809104026020016040519081016040528092919081815260200182805461024790610658565b80156102945780601f1061026957610100808354040283529160200191610294565b820191906000526020600020905b81548152906001019060200180831161027757829003601f168201915b505050505081565b3360008181526001602090815260408083206001600160a01b038716808552925280832085905551919290917f8c5be1e5ebec7d5bd14f71427d1e84f3dd0314c0f7b2291e5b200ac8c7c3b925906102f79086815260200190565b60405180910390a350600192915050565b6001600160a01b03831660008181526001602090815260408083203384528252808320549383529082905281205490919083118015906103485750828110155b61036d5760405162461bcd60e51b815260040161036490610692565b60405180910390fd5b6001600160a01b038416600090815260208190526040812080548592906103959084906106ef565b90915550506001600160a01b038516600090815260208190526040812080548592906103c2908490610707565b909155505060001981101561040a576001600160a01b038516600090815260016020908152604080832033845290915281208054859290610404908490610707565b90915550505b836001600160a01b0316856001600160a01b03167fddf252ad1be2c89b69c2b068fc378daa952ba7f163c4a11628f55a4df523b3ef8560405161044f91815260200190565b60405180910390a3506001949350505050565b6005805461021b90610658565b3360009081526020819052604081205482111561049e5760405162461bcd60e51b815260040161036490610692565b33600090815260208190526040812080548492906104bd908490610707565b90915550506001600160a01b038316600090815260208190526040812080548492906104ea9084906106ef565b90915550506040518281526001600160a01b0384169033907fddf252ad1be2c89b69c2b068fc378daa952ba7f163c4a11628f55a4df523b3ef906020016102f7565b600060208083528351808285015260005b818110156105595785810183015185820160400152820161053d565b8181111561056b576000604083870101525b50601f01601f1916929092016040019392505050565b80356001600160a01b038116811461059857600080fd5b919050565b600080604083850312156105b057600080fd5b6105b983610581565b946020939093013593505050565b6000806000606084860312156105dc57600080fd5b6105e584610581565b92506105f360208501610581565b9150604084013590509250925092565b60006020828403121561061557600080fd5b61061e82610581565b9392505050565b6000806040838503121561063857600080fd5b61064183610581565b915061064f60208401610581565b90509250929050565b600181811c9082168061066c57607f821691505b60208210810361068c57634e487b7160e01b600052602260045260246000fd5b50919050565b60208082526027908201527f496e73756666696369656e742066756e647320666f72207472616e736665722060408201526639b7bab931b29760c91b606082015260800190565b634e487b7160e01b600052601160045260246000fd5b60008219821115610702576107026106d9565b500190565b600082821015610719576107196106d9565b50039056fea264697066735822122068bb7e0a798f660fc2fb78badf036602e3327159336fc96a1d8591ec65c5aeac64736f6c634300080d0033",
    "sourcePath": "c:/Users/ErangaGayashanBISTEC/Repos/blockchain-supplychain-dapp/contracts/erc20Token.sol",
    "compiler": {
        "name": "solc",
        "version": "0.8.13+commit.abaa5c0e"
    },
    "functionHashes": {
        "allowance(address,address)": "dd62ed3e",
        "allowed(address,address)": "5c658165",
        "approve(address,uint256)": "095ea7b3",
        "balanceOf(address)": "70a08231",
        "balances(address)": "27e235e3",
        "decimals()": "313ce567",
        "name()": "06fdde03",
        "symbol()": "95d89b41",
        "totSupply()": "81fbf0a5",
        "totalSupply()": "18160ddd",
        "transfer(address,uint256)": "a9059cbb",
        "transferFrom(address,address,uint256)": "23b872dd"
    },
    "gasEstimates": {
        "creation": {
            "codeDepositCost": "375200",
            "executionCost": "infinite",
            "totalCost": "infinite"
        },
        "external": {
            "allowance(address,address)": "infinite",
            "allowed(address,address)": "infinite",
            "approve(address,uint256)": "24522",
            "balanceOf(address)": "2562",
            "balances(address)": "2611",
            "decimals()": "2424",
            "name()": "infinite",
            "symbol()": "infinite",
            "totSupply()": "2339",
            "totalSupply()": "226",
            "transfer(address,uint256)": "53282",
            "transferFrom(address,address,uint256)": "infinite"
        }
    }
}