{
    "contractName": "supplyChain",
    "abi": [
        {
            "anonymous": false,
            "inputs": [
                {
                    "indexed": false,
                    "internalType": "uint32",
                    "name": "productId",
                    "type": "uint32"
                }
            ],
            "name": "TransferOwnership",
            "type": "event"
        },
        {
            "inputs": [
                {
                    "internalType": "string",
                    "name": "_name",
                    "type": "string"
                },
                {
                    "internalType": "string",
                    "name": "_pass",
                    "type": "string"
                },
                {
                    "internalType": "address",
                    "name": "_pAdd",
                    "type": "address"
                },
                {
                    "internalType": "string",
                    "name": "_pType",
                    "type": "string"
                }
            ],
            "name": "addParticipant",
            "outputs": [
                {
                    "internalType": "uint32",
                    "name": "",
                    "type": "uint32"
                }
            ],
            "stateMutability": "nonpayable",
            "type": "function"
        },
        {
            "inputs": [
                {
                    "internalType": "uint32",
                    "name": "_ownerId",
                    "type": "uint32"
                },
                {
                    "internalType": "string",
                    "name": "_modelNumber",
                    "type": "string"
                },
                {
                    "internalType": "string",
                    "name": "_partNumber",
                    "type": "string"
                },
                {
                    "internalType": "string",
                    "name": "_serialNumber",
                    "type": "string"
                },
                {
                    "internalType": "uint32",
                    "name": "_productCost",
                    "type": "uint32"
                }
            ],
            "name": "addProduct",
            "outputs": [
                {
                    "internalType": "uint32",
                    "name": "",
                    "type": "uint32"
                }
            ],
            "stateMutability": "nonpayable",
            "type": "function"
        },
        {
            "inputs": [
                {
                    "internalType": "uint32",
                    "name": "_uid",
                    "type": "uint32"
                },
                {
                    "internalType": "string",
                    "name": "_uname",
                    "type": "string"
                },
                {
                    "internalType": "string",
                    "name": "_pass",
                    "type": "string"
                },
                {
                    "internalType": "string",
                    "name": "_utype",
                    "type": "string"
                }
            ],
            "name": "authenticateParticipant",
            "outputs": [
                {
                    "internalType": "bool",
                    "name": "",
                    "type": "bool"
                }
            ],
            "stateMutability": "view",
            "type": "function"
        },
        {
            "inputs": [
                {
                    "internalType": "uint32",
                    "name": "_regId",
                    "type": "uint32"
                }
            ],
            "name": "getOwnership",
            "outputs": [
                {
                    "internalType": "uint32",
                    "name": "",
                    "type": "uint32"
                },
                {
                    "internalType": "uint32",
                    "name": "",
                    "type": "uint32"
                },
                {
                    "internalType": "uint32",
                    "name": "",
                    "type": "uint32"
                },
                {
                    "internalType": "address",
                    "name": "",
                    "type": "address"
                }
            ],
            "stateMutability": "view",
            "type": "function"
        },
        {
            "inputs": [
                {
                    "internalType": "uint32",
                    "name": "_participant_id",
                    "type": "uint32"
                }
            ],
            "name": "getParticipant",
            "outputs": [
                {
                    "internalType": "string",
                    "name": "",
                    "type": "string"
                },
                {
                    "internalType": "address",
                    "name": "",
                    "type": "address"
                },
                {
                    "internalType": "string",
                    "name": "",
                    "type": "string"
                }
            ],
            "stateMutability": "view",
            "type": "function"
        },
        {
            "inputs": [
                {
                    "internalType": "uint32",
                    "name": "_productId",
                    "type": "uint32"
                }
            ],
            "name": "getProduct",
            "outputs": [
                {
                    "internalType": "string",
                    "name": "",
                    "type": "string"
                },
                {
                    "internalType": "string",
                    "name": "",
                    "type": "string"
                },
                {
                    "internalType": "string",
                    "name": "",
                    "type": "string"
                },
                {
                    "internalType": "uint32",
                    "name": "",
                    "type": "uint32"
                },
                {
                    "internalType": "address",
                    "name": "",
                    "type": "address"
                },
                {
                    "internalType": "uint32",
                    "name": "",
                    "type": "uint32"
                }
            ],
            "stateMutability": "view",
            "type": "function"
        },
        {
            "inputs": [
                {
                    "internalType": "uint32",
                    "name": "_productId",
                    "type": "uint32"
                }
            ],
            "name": "getProvenance",
            "outputs": [
                {
                    "internalType": "uint32[]",
                    "name": "",
                    "type": "uint32[]"
                }
            ],
            "stateMutability": "view",
            "type": "function"
        },
        {
            "inputs": [
                {
                    "internalType": "uint32",
                    "name": "_currentUId",
                    "type": "uint32"
                },
                {
                    "internalType": "uint32",
                    "name": "_nextUId",
                    "type": "uint32"
                },
                {
                    "internalType": "uint32",
                    "name": "_productId",
                    "type": "uint32"
                }
            ],
            "name": "newOwner",
            "outputs": [
                {
                    "internalType": "bool",
                    "name": "",
                    "type": "bool"
                }
            ],
            "stateMutability": "nonpayable",
            "type": "function"
        },
        {
            "inputs": [],
            "name": "owner_id",
            "outputs": [
                {
                    "internalType": "uint32",
                    "name": "",
                    "type": "uint32"
                }
            ],
            "stateMutability": "view",
            "type": "function"
        },
        {
            "inputs": [
                {
                    "internalType": "uint32",
                    "name": "",
                    "type": "uint32"
                }
            ],
            "name": "ownerships",
            "outputs": [
                {
                    "internalType": "uint32",
                    "name": "productId",
                    "type": "uint32"
                },
                {
                    "internalType": "uint32",
                    "name": "ownerId",
                    "type": "uint32"
                },
                {
                    "internalType": "uint32",
                    "name": "trxTimeStamp",
                    "type": "uint32"
                },
                {
                    "internalType": "address",
                    "name": "ownerAddress",
                    "type": "address"
                }
            ],
            "stateMutability": "view",
            "type": "function"
        },
        {
            "inputs": [],
            "name": "participant_id",
            "outputs": [
                {
                    "internalType": "uint32",
                    "name": "",
                    "type": "uint32"
                }
            ],
            "stateMutability": "view",
            "type": "function"
        },
        {
            "inputs": [
                {
                    "internalType": "uint32",
                    "name": "",
                    "type": "uint32"
                }
            ],
            "name": "participants",
            "outputs": [
                {
                    "internalType": "string",
                    "name": "userName",
                    "type": "string"
                },
                {
                    "internalType": "string",
                    "name": "passWord",
                    "type": "string"
                },
                {
                    "internalType": "string",
                    "name": "participantType",
                    "type": "string"
                },
                {
                    "internalType": "address",
                    "name": "participantAddress",
                    "type": "address"
                }
            ],
            "stateMutability": "view",
            "type": "function"
        },
        {
            "inputs": [
                {
                    "internalType": "uint32",
                    "name": "",
                    "type": "uint32"
                },
                {
                    "internalType": "uint256",
                    "name": "",
                    "type": "uint256"
                }
            ],
            "name": "productTrack",
            "outputs": [
                {
                    "internalType": "uint32",
                    "name": "",
                    "type": "uint32"
                }
            ],
            "stateMutability": "view",
            "type": "function"
        },
        {
            "inputs": [],
            "name": "product_id",
            "outputs": [
                {
                    "internalType": "uint32",
                    "name": "",
                    "type": "uint32"
                }
            ],
            "stateMutability": "view",
            "type": "function"
        },
        {
            "inputs": [
                {
                    "internalType": "uint32",
                    "name": "",
                    "type": "uint32"
                }
            ],
            "name": "products",
            "outputs": [
                {
                    "internalType": "address",
                    "name": "ownerAddress",
                    "type": "address"
                },
                {
                    "internalType": "string",
                    "name": "modelNumber",
                    "type": "string"
                },
                {
                    "internalType": "string",
                    "name": "partNumber",
                    "type": "string"
                },
                {
                    "internalType": "string",
                    "name": "serialNumber",
                    "type": "string"
                },
                {
                    "internalType": "uint32",
                    "name": "cost",
                    "type": "uint32"
                },
                {
                    "internalType": "uint32",
                    "name": "mfgTimeStamp",
                    "type": "uint32"
                }
            ],
            "stateMutability": "view",
            "type": "function"
        }
    ],
    "bytecode": "6080604052600080546001600160601b031916905534801561002057600080fd5b5061233f806100306000396000f3fe608060405234801561001057600080fd5b50600436106100f55760003560e01c80638f5ebf7111610097578063df6d23f111610066578063df6d23f1146102b9578063eab0a47914610330578063ebf43a7e14610340578063fc2da9101461035357600080fd5b80638f5ebf7114610238578063a638ac491461024f578063bf712fd614610274578063c85695651461029957600080fd5b806350632104116100d3578063506321041461016c578063721b57431461017f5780637d0a9ac91461019257806381e15610146101b557600080fd5b80631a074802146100fa5780632e9d5284146101275780633b26a65d1461014a575b600080fd5b61010d610108366004611cb2565b61036b565b60405163ffffffff90911681526020015b60405180910390f35b61013a610135366004611cdc565b6103b4565b604051901515815260200161011e565b61015d610158366004611d1f565b610fea565b60405161011e93929190611d9d565b61010d61017a366004611e7e565b611141565b61013a61018d366004611f28565b61137f565b6101a56101a0366004611d1f565b6114cb565b60405161011e9493929190611fc1565b6102026101c3366004611d1f565b60036020526000908152604090205463ffffffff808216916401000000008104821691600160401b82041690600160601b90046001600160a01b031684565b6040805163ffffffff9586168152938516602085015291909316908201526001600160a01b03909116606082015260800161011e565b60005461010d90600160401b900463ffffffff1681565b61026261025d366004611d1f565b611694565b60405161011e96959493929190612014565b610287610282366004611d1f565b6118a3565b60405161011e9695949392919061207f565b6102ac6102a7366004611d1f565b611a87565b60405161011e91906120ed565b6102026102c7366004611d1f565b63ffffffff9081166000908152600360209081526040918290208251608081018452905480851680835264010000000082048616938301849052600160401b8204909516938201849052600160601b90046001600160a01b031660609091018190529293909290565b60005461010d9063ffffffff1681565b61010d61034e366004612137565b611b1c565b60005461010d90640100000000900463ffffffff1681565b6004602052816000526040600020818154811061038757600080fd5b9060005260206000209060089182820401919006600402915091509054906101000a900463ffffffff1681565b63ffffffff811660009081526001602052604081205482906001600160a01b031633146104015760405162461bcd60e51b8152602060048201526000602482015260440160405180910390fd5b63ffffffff851660009081526002602052604080822081516080810190925280548290829061042f906121c7565b80601f016020809104026020016040519081016040528092919081815260200182805461045b906121c7565b80156104a85780601f1061047d576101008083540402835291602001916104a8565b820191906000526020600020905b81548152906001019060200180831161048b57829003601f168201915b505050505081526020016001820180546104c1906121c7565b80601f01602080910402602001604051908101604052809291908181526020018280546104ed906121c7565b801561053a5780601f1061050f5761010080835404028352916020019161053a565b820191906000526020600020905b81548152906001019060200180831161051d57829003601f168201915b50505050508152602001600282018054610553906121c7565b80601f016020809104026020016040519081016040528092919081815260200182805461057f906121c7565b80156105cc5780601f106105a1576101008083540402835291602001916105cc565b820191906000526020600020905b8154815290600101906020018083116105af57829003601f168201915b5050509183525050600391909101546001600160a01b031660209182015263ffffffff87166000908152600290915260408082208151608081019092528054939450919290919082908290610620906121c7565b80601f016020809104026020016040519081016040528092919081815260200182805461064c906121c7565b80156106995780601f1061066e57610100808354040283529160200191610699565b820191906000526020600020905b81548152906001019060200180831161067c57829003601f168201915b505050505081526020016001820180546106b2906121c7565b80601f01602080910402602001604051908101604052809291908181526020018280546106de906121c7565b801561072b5780601f106107005761010080835404028352916020019161072b565b820191906000526020600020905b81548152906001019060200180831161070e57829003601f168201915b50505050508152602001600282018054610744906121c7565b80601f0160208091040260200160405190810160405280929190818152602001828054610770906121c7565b80156107bd5780601f10610792576101008083540402835291602001916107bd565b820191906000526020600020905b8154815290600101906020018083116107a057829003601f168201915b5050509183525050600391909101546001600160a01b03166020909101526000805491925090600160401b900463ffffffff168160086107fc83612201565b91906101000a81548163ffffffff021916908363ffffffff16021790555090507fcec9b8e63c868f2f7f30368f1583e7aa39ae80e163d57a859fa5a90244b28ac183604001516040516020016108529190612232565b604051602081830303815290604052805190602001201480156108ac57506000805160206122ea83398151915282604001516040516020016108949190612232565b60405160208183030381529060405280519060200120145b15610ac45785600360008363ffffffff1663ffffffff16815260200190815260200160002060000160006101000a81548163ffffffff021916908363ffffffff1602179055508160600151600360008363ffffffff1663ffffffff168152602001908152602001600020600001600c6101000a8154816001600160a01b0302191690836001600160a01b0316021790555086600360008363ffffffff1663ffffffff16815260200190815260200160002060000160046101000a81548163ffffffff021916908363ffffffff16021790555042600360008363ffffffff1663ffffffff16815260200190815260200160002060000160086101000a81548163ffffffff021916908363ffffffff1602179055508160600151600160008863ffffffff1663ffffffff16815260200190815260200160002060000160006101000a8154816001600160a01b0302191690836001600160a01b03160217905550600460008763ffffffff1663ffffffff1681526020019081526020016000208190806001815401808255809150506001900390600052602060002090600891828204019190066004029091909190916101000a81548163ffffffff021916908363ffffffff1602179055507fa5470ac012c6e9dc500e62b1d3de0de58db49b3ab7cfebbfb126d9abd854199b86604051610ab0919063ffffffff91909116815260200190565b60405180910390a160019450505050610fe2565b6000805160206122ea8339815191528360400151604051602001610ae89190612232565b60405160208183030381529060405280519060200120148015610b4257506000805160206122ea8339815191528260400151604051602001610b2a9190612232565b60405160208183030381529060405280519060200120145b15610d465785600360008363ffffffff1663ffffffff16815260200190815260200160002060000160006101000a81548163ffffffff021916908363ffffffff1602179055508160600151600360008363ffffffff1663ffffffff168152602001908152602001600020600001600c6101000a8154816001600160a01b0302191690836001600160a01b0316021790555086600360008363ffffffff1663ffffffff16815260200190815260200160002060000160046101000a81548163ffffffff021916908363ffffffff16021790555042600360008363ffffffff1663ffffffff16815260200190815260200160002060000160086101000a81548163ffffffff021916908363ffffffff1602179055508160600151600160008863ffffffff1663ffffffff16815260200190815260200160002060000160006101000a8154816001600160a01b0302191690836001600160a01b03160217905550600460008763ffffffff1663ffffffff1681526020019081526020016000208190806001815401808255809150506001900390600052602060002090600891828204019190066004029091909190916101000a81548163ffffffff021916908363ffffffff1602179055507fa5470ac012c6e9dc500e62b1d3de0de58db49b3ab7cfebbfb126d9abd854199b86604051610ab0919063ffffffff91909116815260200190565b6000805160206122ea8339815191528360400151604051602001610d6a9190612232565b60405160208183030381529060405280519060200120148015610dd657507fb2ebd6afe8ba024614156b3c81d408e68cbe372754a5503c8b7f07bbace9f6ba8260400151604051602001610dbe9190612232565b60405160208183030381529060405280519060200120145b15610fda5785600360008363ffffffff1663ffffffff16815260200190815260200160002060000160006101000a81548163ffffffff021916908363ffffffff1602179055508160600151600360008363ffffffff1663ffffffff168152602001908152602001600020600001600c6101000a8154816001600160a01b0302191690836001600160a01b0316021790555086600360008363ffffffff1663ffffffff16815260200190815260200160002060000160046101000a81548163ffffffff021916908363ffffffff16021790555042600360008363ffffffff1663ffffffff16815260200190815260200160002060000160086101000a81548163ffffffff021916908363ffffffff1602179055508160600151600160008863ffffffff1663ffffffff16815260200190815260200160002060000160006101000a8154816001600160a01b0302191690836001600160a01b03160217905550600460008763ffffffff1663ffffffff1681526020019081526020016000208190806001815401808255809150506001900390600052602060002090600891828204019190066004029091909190916101000a81548163ffffffff021916908363ffffffff1602179055507fa5470ac012c6e9dc500e62b1d3de0de58db49b3ab7cfebbfb126d9abd854199b86604051610ab0919063ffffffff91909116815260200190565b600094505050505b509392505050565b63ffffffff81166000908152600260208190526040822060038101548154606094938593926001600160a01b031691908301908390611028906121c7565b80601f0160208091040260200160405190810160405280929190818152602001828054611054906121c7565b80156110a15780601f10611076576101008083540402835291602001916110a1565b820191906000526020600020905b81548152906001019060200180831161108457829003601f168201915b505050505092508080546110b4906121c7565b80601f01602080910402602001604051908101604052809291908181526020018280546110e0906121c7565b801561112d5780601f106111025761010080835404028352916020019161112d565b820191906000526020600020905b81548152906001019060200180831161111057829003601f168201915b505050505090509250925092509193909250565b63ffffffff8516600090815260026020818152604080842090517fcec9b8e63c868f2f7f30368f1583e7aa39ae80e163d57a859fa5a90244b28ac19361118a939201910161224e565b6040516020818303038152906040528051906020012003611372576000805463ffffffff1681806111ba83612201565b91906101000a81548163ffffffff021916908363ffffffff160217905550905085600160008363ffffffff1663ffffffff1681526020019081526020016000206001019080519060200190611210929190611c00565b5063ffffffff81166000908152600160209081526040909120865161123d92600290920191880190611c00565b5063ffffffff81166000908152600160209081526040909120855161126a92600390920191870190611c00565b5082600160008363ffffffff1663ffffffff16815260200190815260200160002060040160006101000a81548163ffffffff021916908363ffffffff160217905550600260008863ffffffff1663ffffffff16815260200190815260200160002060030160009054906101000a90046001600160a01b0316600160008363ffffffff1663ffffffff16815260200190815260200160002060000160006101000a8154816001600160a01b0302191690836001600160a01b0316021790555042600160008363ffffffff1663ffffffff16815260200190815260200160002060040160046101000a81548163ffffffff021916908363ffffffff16021790555080915050611376565b5060005b95945050505050565b6000816040516020016113929190612232565b60408051601f19818403018152828252805160209182012063ffffffff89166000908152600280845293902090936113cf9391909101910161224e565b60405160208183030381529060405280519060200120036114bf57836040516020016113fb9190612232565b60408051601f19818403018152828252805160209182012063ffffffff891660009081526002835292909220919261143492910161224e565b60405160208183030381529060405280519060200120036114bf57826040516020016114609190612232565b60408051601f19818403018152828252805160209182012063ffffffff891660009081526002835292909220919261149c92600101910161224e565b60405160208183030381529060405280519060200120036114bf575060016114c3565b5060005b949350505050565b6002602052600090815260409020805481906114e6906121c7565b80601f0160208091040260200160405190810160405280929190818152602001828054611512906121c7565b801561155f5780601f106115345761010080835404028352916020019161155f565b820191906000526020600020905b81548152906001019060200180831161154257829003601f168201915b505050505090806001018054611574906121c7565b80601f01602080910402602001604051908101604052809291908181526020018280546115a0906121c7565b80156115ed5780601f106115c2576101008083540402835291602001916115ed565b820191906000526020600020905b8154815290600101906020018083116115d057829003601f168201915b505050505090806002018054611602906121c7565b80601f016020809104026020016040519081016040528092919081815260200182805461162e906121c7565b801561167b5780601f106116505761010080835404028352916020019161167b565b820191906000526020600020905b81548152906001019060200180831161165e57829003601f168201915b505050600390930154919250506001600160a01b031684565b63ffffffff8082166000908152600160208190526040822060048101548154928201805460609687968796909586958695946002830194600390930193828416936001600160a01b03909116926401000000009004169086906116f6906121c7565b80601f0160208091040260200160405190810160405280929190818152602001828054611722906121c7565b801561176f5780601f106117445761010080835404028352916020019161176f565b820191906000526020600020905b81548152906001019060200180831161175257829003601f168201915b50505050509550848054611782906121c7565b80601f01602080910402602001604051908101604052809291908181526020018280546117ae906121c7565b80156117fb5780601f106117d0576101008083540402835291602001916117fb565b820191906000526020600020905b8154815290600101906020018083116117de57829003601f168201915b5050505050945083805461180e906121c7565b80601f016020809104026020016040519081016040528092919081815260200182805461183a906121c7565b80156118875780601f1061185c57610100808354040283529160200191611887565b820191906000526020600020905b81548152906001019060200180831161186a57829003601f168201915b5050505050935095509550955095509550955091939550919395565b6001602081905260009182526040909120805491810180546001600160a01b03909316926118d0906121c7565b80601f01602080910402602001604051908101604052809291908181526020018280546118fc906121c7565b80156119495780601f1061191e57610100808354040283529160200191611949565b820191906000526020600020905b81548152906001019060200180831161192c57829003601f168201915b50505050509080600201805461195e906121c7565b80601f016020809104026020016040519081016040528092919081815260200182805461198a906121c7565b80156119d75780601f106119ac576101008083540402835291602001916119d7565b820191906000526020600020905b8154815290600101906020018083116119ba57829003601f168201915b5050505050908060030180546119ec906121c7565b80601f0160208091040260200160405190810160405280929190818152602001828054611a18906121c7565b8015611a655780601f10611a3a57610100808354040283529160200191611a65565b820191906000526020600020905b815481529060010190602001808311611a4857829003601f168201915b5050506004909301549192505063ffffffff8082169164010000000090041686565b63ffffffff8116600090815260046020908152604091829020805483518184028101840190945280845260609392830182828015611b1057602002820191906000526020600020906000905b82829054906101000a900463ffffffff1663ffffffff1681526020019060040190602082600301049283019260010382029150808411611ad35790505b50505050509050919050565b600080548190640100000000900463ffffffff16816004611b3c83612201565b82546101009290920a63ffffffff818102199093169183160217909155811660009081526002602090815260409091208851929350611b7f929091890190611c00565b5063ffffffff811660009081526002602090815260409091208651611bac92600190920191880190611c00565b5063ffffffff811660009081526002602081815260409092206003810180546001600160a01b0319166001600160a01b0389161790558551611bf693919092019190860190611c00565b5095945050505050565b828054611c0c906121c7565b90600052602060002090601f016020900481019282611c2e5760008555611c74565b82601f10611c4757805160ff1916838001178555611c74565b82800160010185558215611c74579182015b82811115611c74578251825591602001919060010190611c59565b50611c80929150611c84565b5090565b5b80821115611c805760008155600101611c85565b803563ffffffff81168114611cad57600080fd5b919050565b60008060408385031215611cc557600080fd5b611cce83611c99565b946020939093013593505050565b600080600060608486031215611cf157600080fd5b611cfa84611c99565b9250611d0860208501611c99565b9150611d1660408501611c99565b90509250925092565b600060208284031215611d3157600080fd5b611d3a82611c99565b9392505050565b60005b83811015611d5c578181015183820152602001611d44565b83811115611d6b576000848401525b50505050565b60008151808452611d89816020860160208601611d41565b601f01601f19169290920160200192915050565b606081526000611db06060830186611d71565b6001600160a01b03851660208401528281036040840152611dd18185611d71565b9695505050505050565b634e487b7160e01b600052604160045260246000fd5b600082601f830112611e0257600080fd5b813567ffffffffffffffff80821115611e1d57611e1d611ddb565b604051601f8301601f19908116603f01168101908282118183101715611e4557611e45611ddb565b81604052838152866020858801011115611e5e57600080fd5b836020870160208301376000602085830101528094505050505092915050565b600080600080600060a08688031215611e9657600080fd5b611e9f86611c99565b9450602086013567ffffffffffffffff80821115611ebc57600080fd5b611ec889838a01611df1565b95506040880135915080821115611ede57600080fd5b611eea89838a01611df1565b94506060880135915080821115611f0057600080fd5b50611f0d88828901611df1565b925050611f1c60808701611c99565b90509295509295909350565b60008060008060808587031215611f3e57600080fd5b611f4785611c99565b9350602085013567ffffffffffffffff80821115611f6457600080fd5b611f7088838901611df1565b94506040870135915080821115611f8657600080fd5b611f9288838901611df1565b93506060870135915080821115611fa857600080fd5b50611fb587828801611df1565b91505092959194509250565b608081526000611fd46080830187611d71565b8281036020840152611fe68187611d71565b90508281036040840152611ffa8186611d71565b91505060018060a01b038316606083015295945050505050565b60c08152600061202760c0830189611d71565b82810360208401526120398189611d71565b9050828103604084015261204d8188611d71565b63ffffffff96871660608501526001600160a01b039590951660808401525050921660a0909201919091529392505050565b6001600160a01b038716815260c0602082018190526000906120a390830188611d71565b82810360408401526120b58188611d71565b905082810360608401526120c98187611d71565b91505063ffffffff808516608084015280841660a084015250979650505050505050565b6020808252825182820181905260009190848201906040850190845b8181101561212b57835163ffffffff1683529284019291840191600101612109565b50909695505050505050565b6000806000806080858703121561214d57600080fd5b843567ffffffffffffffff8082111561216557600080fd5b61217188838901611df1565b9550602087013591508082111561218757600080fd5b61219388838901611df1565b9450604087013591506001600160a01b03821682146121b157600080fd5b90925060608601359080821115611fa857600080fd5b600181811c908216806121db57607f821691505b6020821081036121fb57634e487b7160e01b600052602260045260246000fd5b50919050565b600063ffffffff80831681810361222857634e487b7160e01b600052601160045260246000fd5b6001019392505050565b60008251612244818460208701611d41565b9190910192915050565b600080835481600182811c91508083168061226a57607f831692505b6020808410820361228957634e487b7160e01b86526022600452602486fd5b81801561229d57600181146122ae576122db565b60ff198616895284890196506122db565b60008a81526020902060005b868110156122d35781548b8201529085019083016122ba565b505084890196505b50949897505050505050505056feb77c7d6bf62fa24fc205955093030c58325cd2d3d35fb486ede7594fb99635f5a264697066735822122043a3dcb574d0d83f28d859743de914fa0a4ba2e414692bcf7b1c2369613892ac64736f6c634300080d0033",
    "sourcePath": "c:/Users/ErangaGayashanBISTEC/Repos/blockchain-supplychain-dapp/contracts/SupplyChain.sol",
    "compiler": {
        "name": "solc",
        "version": "0.8.13+commit.abaa5c0e"
    },
    "functionHashes": {
        "addParticipant(string,string,address,string)": "ebf43a7e",
        "addProduct(uint32,string,string,string,uint32)": "50632104",
        "authenticateParticipant(uint32,string,string,string)": "721b5743",
        "getOwnership(uint32)": "df6d23f1",
        "getParticipant(uint32)": "3b26a65d",
        "getProduct(uint32)": "a638ac49",
        "getProvenance(uint32)": "c8569565",
        "newOwner(uint32,uint32,uint32)": "2e9d5284",
        "owner_id()": "8f5ebf71",
        "ownerships(uint32)": "81e15610",
        "participant_id()": "fc2da910",
        "participants(uint32)": "7d0a9ac9",
        "productTrack(uint32,uint256)": "1a074802",
        "product_id()": "eab0a479",
        "products(uint32)": "bf712fd6"
    },
    "gasEstimates": {
        "creation": {
            "codeDepositCost": "1804600",
            "executionCost": "26128",
            "totalCost": "1830728"
        },
        "external": {
            "addParticipant(string,string,address,string)": "infinite",
            "addProduct(uint32,string,string,string,uint32)": "infinite",
            "authenticateParticipant(uint32,string,string,string)": "infinite",
            "getOwnership(uint32)": "2856",
            "getParticipant(uint32)": "infinite",
            "getProduct(uint32)": "infinite",
            "getProvenance(uint32)": "infinite",
            "newOwner(uint32,uint32,uint32)": "infinite",
            "owner_id()": "2342",
            "ownerships(uint32)": "2791",
            "participant_id()": "2401",
            "participants(uint32)": "infinite",
            "productTrack(uint32,uint256)": "6421",
            "product_id()": "2346",
            "products(uint32)": "infinite"
        }
    }
}