{
  "contractName": "supplyChain",
  "abi": [
    {
      "anonymous": false,
      "inputs": [
        {
          "indexed": false,
          "internalType": "uint32",
          "name": "productId",
          "type": "uint32"
        }
      ],
      "name": "TransferOwnership",
      "type": "event"
    },
    {
      "inputs": [],
      "name": "owner_id",
      "outputs": [
        {
          "internalType": "uint32",
          "name": "",
          "type": "uint32"
        }
      ],
      "stateMutability": "view",
      "type": "function"
    },
    {
      "inputs": [
        {
          "internalType": "uint32",
          "name": "",
          "type": "uint32"
        }
      ],
      "name": "ownerships",
      "outputs": [
        {
          "internalType": "uint32",
          "name": "productId",
          "type": "uint32"
        },
        {
          "internalType": "uint32",
          "name": "ownerId",
          "type": "uint32"
        },
        {
          "internalType": "uint32",
          "name": "trxTimeStamp",
          "type": "uint32"
        },
        {
          "internalType": "address",
          "name": "ownerAddress",
          "type": "address"
        }
      ],
      "stateMutability": "view",
      "type": "function"
    },
    {
      "inputs": [],
      "name": "participant_id",
      "outputs": [
        {
          "internalType": "uint32",
          "name": "",
          "type": "uint32"
        }
      ],
      "stateMutability": "view",
      "type": "function"
    },
    {
      "inputs": [
        {
          "internalType": "uint32",
          "name": "",
          "type": "uint32"
        }
      ],
      "name": "participants",
      "outputs": [
        {
          "internalType": "string",
          "name": "userName",
          "type": "string"
        },
        {
          "internalType": "string",
          "name": "passWord",
          "type": "string"
        },
        {
          "internalType": "string",
          "name": "participantType",
          "type": "string"
        },
        {
          "internalType": "address",
          "name": "participantAddress",
          "type": "address"
        }
      ],
      "stateMutability": "view",
      "type": "function"
    },
    {
      "inputs": [
        {
          "internalType": "uint32",
          "name": "",
          "type": "uint32"
        },
        {
          "internalType": "uint256",
          "name": "",
          "type": "uint256"
        }
      ],
      "name": "productTrack",
      "outputs": [
        {
          "internalType": "uint32",
          "name": "",
          "type": "uint32"
        }
      ],
      "stateMutability": "view",
      "type": "function"
    },
    {
      "inputs": [],
      "name": "product_id",
      "outputs": [
        {
          "internalType": "uint32",
          "name": "",
          "type": "uint32"
        }
      ],
      "stateMutability": "view",
      "type": "function"
    },
    {
      "inputs": [
        {
          "internalType": "uint32",
          "name": "",
          "type": "uint32"
        }
      ],
      "name": "products",
      "outputs": [
        {
          "internalType": "address",
          "name": "ownerAddress",
          "type": "address"
        },
        {
          "internalType": "string",
          "name": "modelNumber",
          "type": "string"
        },
        {
          "internalType": "string",
          "name": "partNumber",
          "type": "string"
        },
        {
          "internalType": "string",
          "name": "serialNumber",
          "type": "string"
        },
        {
          "internalType": "uint32",
          "name": "cost",
          "type": "uint32"
        },
        {
          "internalType": "uint32",
          "name": "mfgTimeStamp",
          "type": "uint32"
        }
      ],
      "stateMutability": "view",
      "type": "function"
    },
    {
      "inputs": [
        {
          "internalType": "string",
          "name": "_name",
          "type": "string"
        },
        {
          "internalType": "string",
          "name": "_pass",
          "type": "string"
        },
        {
          "internalType": "address",
          "name": "_pAdd",
          "type": "address"
        },
        {
          "internalType": "string",
          "name": "_pType",
          "type": "string"
        }
      ],
      "name": "addParticipant",
      "outputs": [
        {
          "internalType": "uint32",
          "name": "",
          "type": "uint32"
        }
      ],
      "stateMutability": "nonpayable",
      "type": "function"
    },
    {
      "inputs": [
        {
          "internalType": "uint32",
          "name": "_participant_id",
          "type": "uint32"
        }
      ],
      "name": "getParticipant",
      "outputs": [
        {
          "internalType": "string",
          "name": "",
          "type": "string"
        },
        {
          "internalType": "address",
          "name": "",
          "type": "address"
        },
        {
          "internalType": "string",
          "name": "",
          "type": "string"
        }
      ],
      "stateMutability": "view",
      "type": "function"
    },
    {
      "inputs": [
        {
          "internalType": "uint32",
          "name": "_ownerId",
          "type": "uint32"
        },
        {
          "internalType": "string",
          "name": "_modelNumber",
          "type": "string"
        },
        {
          "internalType": "string",
          "name": "_partNumber",
          "type": "string"
        },
        {
          "internalType": "string",
          "name": "_serialNumber",
          "type": "string"
        },
        {
          "internalType": "uint32",
          "name": "_productCost",
          "type": "uint32"
        }
      ],
      "name": "addProduct",
      "outputs": [
        {
          "internalType": "uint32",
          "name": "",
          "type": "uint32"
        }
      ],
      "stateMutability": "nonpayable",
      "type": "function"
    },
    {
      "inputs": [
        {
          "internalType": "uint32",
          "name": "_productId",
          "type": "uint32"
        }
      ],
      "name": "getProduct",
      "outputs": [
        {
          "internalType": "string",
          "name": "",
          "type": "string"
        },
        {
          "internalType": "string",
          "name": "",
          "type": "string"
        },
        {
          "internalType": "string",
          "name": "",
          "type": "string"
        },
        {
          "internalType": "uint32",
          "name": "",
          "type": "uint32"
        },
        {
          "internalType": "address",
          "name": "",
          "type": "address"
        },
        {
          "internalType": "uint32",
          "name": "",
          "type": "uint32"
        }
      ],
      "stateMutability": "view",
      "type": "function"
    },
    {
      "inputs": [
        {
          "internalType": "uint32",
          "name": "_currentUId",
          "type": "uint32"
        },
        {
          "internalType": "uint32",
          "name": "_nextUId",
          "type": "uint32"
        },
        {
          "internalType": "uint32",
          "name": "_productId",
          "type": "uint32"
        }
      ],
      "name": "newOwner",
      "outputs": [
        {
          "internalType": "bool",
          "name": "",
          "type": "bool"
        }
      ],
      "stateMutability": "nonpayable",
      "type": "function"
    },
    {
      "inputs": [
        {
          "internalType": "uint32",
          "name": "_productId",
          "type": "uint32"
        }
      ],
      "name": "getProvenance",
      "outputs": [
        {
          "internalType": "uint32[]",
          "name": "",
          "type": "uint32[]"
        }
      ],
      "stateMutability": "view",
      "type": "function"
    },
    {
      "inputs": [
        {
          "internalType": "uint32",
          "name": "_regId",
          "type": "uint32"
        }
      ],
      "name": "getOwnership",
      "outputs": [
        {
          "internalType": "uint32",
          "name": "",
          "type": "uint32"
        },
        {
          "internalType": "uint32",
          "name": "",
          "type": "uint32"
        },
        {
          "internalType": "uint32",
          "name": "",
          "type": "uint32"
        },
        {
          "internalType": "address",
          "name": "",
          "type": "address"
        }
      ],
      "stateMutability": "view",
      "type": "function"
    },
    {
      "inputs": [
        {
          "internalType": "uint32",
          "name": "_uid",
          "type": "uint32"
        },
        {
          "internalType": "string",
          "name": "_uname",
          "type": "string"
        },
        {
          "internalType": "string",
          "name": "_pass",
          "type": "string"
        },
        {
          "internalType": "string",
          "name": "_utype",
          "type": "string"
        }
      ],
      "name": "authenticateParticipant",
      "outputs": [
        {
          "internalType": "bool",
          "name": "",
          "type": "bool"
        }
      ],
      "stateMutability": "view",
      "type": "function"
    }
  ],
  "bytecode": "0x608060405260008060006101000a81548163ffffffff021916908363ffffffff16021790555060008060046101000a81548163ffffffff021916908363ffffffff16021790555060008060086101000a81548163ffffffff021916908363ffffffff16021790555034801561007357600080fd5b50612e24806100836000396000f3fe608060405234801561001057600080fd5b50600436106100f55760003560e01c80638f5ebf7111610097578063df6d23f111610066578063df6d23f11461030a578063eab0a4791461033d578063ebf43a7e1461035b578063fc2da9101461038b576100f5565b80638f5ebf7114610252578063a638ac4914610270578063bf712fd6146102a5578063c8569565146102da576100f5565b806350632104116100d3578063506321041461018c578063721b5743146101bc5780637d0a9ac9146101ec57806381e156101461021f576100f5565b80631a074802146100fa5780632e9d52841461012a5780633b26a65d1461015a575b600080fd5b610114600480360381019061010f919061239f565b6103a9565b60405161012191906123ee565b60405180910390f35b610144600480360381019061013f9190612409565b6103f2565b6040516101519190612477565b60405180910390f35b610174600480360381019061016f9190612492565b611212565b60405161018393929190612599565b60405180910390f35b6101a660048036038101906101a19190612713565b6113c4565b6040516101b391906123ee565b60405180910390f35b6101d660048036038101906101d191906127e2565b611658565b6040516101e39190612477565b60405180910390f35b61020660048036038101906102019190612492565b6117ce565b604051610216949392919061289d565b60405180910390f35b61023960048036038101906102349190612492565b6119b6565b60405161024994939291906128f7565b60405180910390f35b61025a611a36565b60405161026791906123ee565b60405180910390f35b61028a60048036038101906102859190612492565b611a4c565b60405161029c9695949392919061293c565b60405180910390f35b6102bf60048036038101906102ba9190612492565b611d1e565b6040516102d1969594939291906129b2565b60405180910390f35b6102f460048036038101906102ef9190612492565b611f32565b6040516103019190612ae6565b60405180910390f35b610324600480360381019061031f9190612492565b611fd5565b60405161033494939291906128f7565b60405180910390f35b6103456120f5565b60405161035291906123ee565b60405180910390f35b61037560048036038101906103709190612b34565b612109565b60405161038291906123ee565b60405180910390f35b610393612260565b6040516103a091906123ee565b60405180910390f35b600460205281600052604060002081815481106103c557600080fd5b9060005260206000209060089182820401919006600402915091509054906101000a900463ffffffff1681565b600081600160008263ffffffff1663ffffffff16815260200190815260200160002060000160009054906101000a900473ffffffffffffffffffffffffffffffffffffffff1673ffffffffffffffffffffffffffffffffffffffff163373ffffffffffffffffffffffffffffffffffffffff16146104a5576040517f08c379a000000000000000000000000000000000000000000000000000000000815260040161049c90612c15565b60405180910390fd5b6000600260008763ffffffff1663ffffffff1681526020019081526020016000206040518060800160405290816000820180546104e190612c64565b80601f016020809104026020016040519081016040528092919081815260200182805461050d90612c64565b801561055a5780601f1061052f5761010080835404028352916020019161055a565b820191906000526020600020905b81548152906001019060200180831161053d57829003601f168201915b5050505050815260200160018201805461057390612c64565b80601f016020809104026020016040519081016040528092919081815260200182805461059f90612c64565b80156105ec5780601f106105c1576101008083540402835291602001916105ec565b820191906000526020600020905b8154815290600101906020018083116105cf57829003601f168201915b5050505050815260200160028201805461060590612c64565b80601f016020809104026020016040519081016040528092919081815260200182805461063190612c64565b801561067e5780601f106106535761010080835404028352916020019161067e565b820191906000526020600020905b81548152906001019060200180831161066157829003601f168201915b505050505081526020016003820160009054906101000a900473ffffffffffffffffffffffffffffffffffffffff1673ffffffffffffffffffffffffffffffffffffffff1673ffffffffffffffffffffffffffffffffffffffff168152505090506000600260008763ffffffff1663ffffffff16815260200190815260200160002060405180608001604052908160008201805461071b90612c64565b80601f016020809104026020016040519081016040528092919081815260200182805461074790612c64565b80156107945780601f1061076957610100808354040283529160200191610794565b820191906000526020600020905b81548152906001019060200180831161077757829003601f168201915b505050505081526020016001820180546107ad90612c64565b80601f01602080910402602001604051908101604052809291908181526020018280546107d990612c64565b80156108265780601f106107fb57610100808354040283529160200191610826565b820191906000526020600020905b81548152906001019060200180831161080957829003601f168201915b5050505050815260200160028201805461083f90612c64565b80601f016020809104026020016040519081016040528092919081815260200182805461086b90612c64565b80156108b85780601f1061088d576101008083540402835291602001916108b8565b820191906000526020600020905b81548152906001019060200180831161089b57829003601f168201915b505050505081526020016003820160009054906101000a900473ffffffffffffffffffffffffffffffffffffffff1673ffffffffffffffffffffffffffffffffffffffff1673ffffffffffffffffffffffffffffffffffffffff16815250509050600080600881819054906101000a900463ffffffff168092919061093c90612cc4565b91906101000a81548163ffffffff021916908363ffffffff16021790555090507fcec9b8e63c868f2f7f30368f1583e7aa39ae80e163d57a859fa5a90244b28ac183604001516040516020016109929190612d2c565b604051602081830303815290604052805190602001201480156109fe57507fb77c7d6bf62fa24fc205955093030c58325cd2d3d35fb486ede7594fb99635f582604001516040516020016109e69190612d2c565b60405160208183030381529060405280519060200120145b15610c3e5785600360008363ffffffff1663ffffffff16815260200190815260200160002060000160006101000a81548163ffffffff021916908363ffffffff1602179055508160600151600360008363ffffffff1663ffffffff168152602001908152602001600020600001600c6101000a81548173ffffffffffffffffffffffffffffffffffffffff021916908373ffffffffffffffffffffffffffffffffffffffff16021790555086600360008363ffffffff1663ffffffff16815260200190815260200160002060000160046101000a81548163ffffffff021916908363ffffffff16021790555042600360008363ffffffff1663ffffffff16815260200190815260200160002060000160086101000a81548163ffffffff021916908363ffffffff1602179055508160600151600160008863ffffffff1663ffffffff16815260200190815260200160002060000160006101000a81548173ffffffffffffffffffffffffffffffffffffffff021916908373ffffffffffffffffffffffffffffffffffffffff160217905550600460008763ffffffff1663ffffffff1681526020019081526020016000208190806001815401808255809150506001900390600052602060002090600891828204019190066004029091909190916101000a81548163ffffffff021916908363ffffffff1602179055507fa5470ac012c6e9dc500e62b1d3de0de58db49b3ab7cfebbfb126d9abd854199b86604051610c2a91906123ee565b60405180910390a16001945050505061120a565b7fb77c7d6bf62fa24fc205955093030c58325cd2d3d35fb486ede7594fb99635f58360400151604051602001610c749190612d2c565b60405160208183030381529060405280519060200120148015610ce057507fb77c7d6bf62fa24fc205955093030c58325cd2d3d35fb486ede7594fb99635f58260400151604051602001610cc89190612d2c565b60405160208183030381529060405280519060200120145b15610f205785600360008363ffffffff1663ffffffff16815260200190815260200160002060000160006101000a81548163ffffffff021916908363ffffffff1602179055508160600151600360008363ffffffff1663ffffffff168152602001908152602001600020600001600c6101000a81548173ffffffffffffffffffffffffffffffffffffffff021916908373ffffffffffffffffffffffffffffffffffffffff16021790555086600360008363ffffffff1663ffffffff16815260200190815260200160002060000160046101000a81548163ffffffff021916908363ffffffff16021790555042600360008363ffffffff1663ffffffff16815260200190815260200160002060000160086101000a81548163ffffffff021916908363ffffffff1602179055508160600151600160008863ffffffff1663ffffffff16815260200190815260200160002060000160006101000a81548173ffffffffffffffffffffffffffffffffffffffff021916908373ffffffffffffffffffffffffffffffffffffffff160217905550600460008763ffffffff1663ffffffff1681526020019081526020016000208190806001815401808255809150506001900390600052602060002090600891828204019190066004029091909190916101000a81548163ffffffff021916908363ffffffff1602179055507fa5470ac012c6e9dc500e62b1d3de0de58db49b3ab7cfebbfb126d9abd854199b86604051610f0c91906123ee565b60405180910390a16001945050505061120a565b7fb77c7d6bf62fa24fc205955093030c58325cd2d3d35fb486ede7594fb99635f58360400151604051602001610f569190612d2c565b60405160208183030381529060405280519060200120148015610fc257507fb2ebd6afe8ba024614156b3c81d408e68cbe372754a5503c8b7f07bbace9f6ba8260400151604051602001610faa9190612d2c565b60405160208183030381529060405280519060200120145b156112025785600360008363ffffffff1663ffffffff16815260200190815260200160002060000160006101000a81548163ffffffff021916908363ffffffff1602179055508160600151600360008363ffffffff1663ffffffff168152602001908152602001600020600001600c6101000a81548173ffffffffffffffffffffffffffffffffffffffff021916908373ffffffffffffffffffffffffffffffffffffffff16021790555086600360008363ffffffff1663ffffffff16815260200190815260200160002060000160046101000a81548163ffffffff021916908363ffffffff16021790555042600360008363ffffffff1663ffffffff16815260200190815260200160002060000160086101000a81548163ffffffff021916908363ffffffff1602179055508160600151600160008863ffffffff1663ffffffff16815260200190815260200160002060000160006101000a81548173ffffffffffffffffffffffffffffffffffffffff021916908373ffffffffffffffffffffffffffffffffffffffff160217905550600460008763ffffffff1663ffffffff1681526020019081526020016000208190806001815401808255809150506001900390600052602060002090600891828204019190066004029091909190916101000a81548163ffffffff021916908363ffffffff1602179055507fa5470ac012c6e9dc500e62b1d3de0de58db49b3ab7cfebbfb126d9abd854199b866040516111ee91906123ee565b60405180910390a16001945050505061120a565b600094505050505b509392505050565b606060006060600260008563ffffffff1663ffffffff168152602001908152602001600020600001600260008663ffffffff1663ffffffff16815260200190815260200160002060030160009054906101000a900473ffffffffffffffffffffffffffffffffffffffff16600260008763ffffffff1663ffffffff1681526020019081526020016000206002018280546112ab90612c64565b80601f01602080910402602001604051908101604052809291908181526020018280546112d790612c64565b80156113245780601f106112f957610100808354040283529160200191611324565b820191906000526020600020905b81548152906001019060200180831161130757829003601f168201915b5050505050925080805461133790612c64565b80601f016020809104026020016040519081016040528092919081815260200182805461136390612c64565b80156113b05780601f10611385576101008083540402835291602001916113b0565b820191906000526020600020905b81548152906001019060200180831161139357829003601f168201915b505050505090509250925092509193909250565b60007fcec9b8e63c868f2f7f30368f1583e7aa39ae80e163d57a859fa5a90244b28ac1600260008863ffffffff1663ffffffff1681526020019081526020016000206002016040516020016114199190612dd7565b604051602081830303815290604052805190602001200361164a57600080600081819054906101000a900463ffffffff168092919061145790612cc4565b91906101000a81548163ffffffff021916908363ffffffff160217905550905085600160008363ffffffff1663ffffffff16815260200190815260200160002060010190805190602001906114ad929190612276565b5084600160008363ffffffff1663ffffffff16815260200190815260200160002060020190805190602001906114e4929190612276565b5083600160008363ffffffff1663ffffffff168152602001908152602001600020600301908051906020019061151b929190612276565b5082600160008363ffffffff1663ffffffff16815260200190815260200160002060040160006101000a81548163ffffffff021916908363ffffffff160217905550600260008863ffffffff1663ffffffff16815260200190815260200160002060030160009054906101000a900473ffffffffffffffffffffffffffffffffffffffff16600160008363ffffffff1663ffffffff16815260200190815260200160002060000160006101000a81548173ffffffffffffffffffffffffffffffffffffffff021916908373ffffffffffffffffffffffffffffffffffffffff16021790555042600160008363ffffffff1663ffffffff16815260200190815260200160002060040160046101000a81548163ffffffff021916908363ffffffff1602179055508091505061164f565b600090505b95945050505050565b60008160405160200161166b9190612d2c565b60405160208183030381529060405280519060200120600260008763ffffffff1663ffffffff1681526020019081526020016000206002016040516020016116b39190612dd7565b60405160208183030381529060405280519060200120036117c157836040516020016116df9190612d2c565b60405160208183030381529060405280519060200120600260008763ffffffff1663ffffffff1681526020019081526020016000206000016040516020016117279190612dd7565b60405160208183030381529060405280519060200120036117c057826040516020016117539190612d2c565b60405160208183030381529060405280519060200120600260008763ffffffff1663ffffffff16815260200190815260200160002060010160405160200161179b9190612dd7565b60405160208183030381529060405280519060200120036117bf57600190506117c6565b5b5b600090505b949350505050565b60026020528060005260406000206000915090508060000180546117f190612c64565b80601f016020809104026020016040519081016040528092919081815260200182805461181d90612c64565b801561186a5780601f1061183f5761010080835404028352916020019161186a565b820191906000526020600020905b81548152906001019060200180831161184d57829003601f168201915b50505050509080600101805461187f90612c64565b80601f01602080910402602001604051908101604052809291908181526020018280546118ab90612c64565b80156118f85780601f106118cd576101008083540402835291602001916118f8565b820191906000526020600020905b8154815290600101906020018083116118db57829003601f168201915b50505050509080600201805461190d90612c64565b80601f016020809104026020016040519081016040528092919081815260200182805461193990612c64565b80156119865780601f1061195b57610100808354040283529160200191611986565b820191906000526020600020905b81548152906001019060200180831161196957829003601f168201915b5050505050908060030160009054906101000a900473ffffffffffffffffffffffffffffffffffffffff16905084565b60036020528060005260406000206000915090508060000160009054906101000a900463ffffffff16908060000160049054906101000a900463ffffffff16908060000160089054906101000a900463ffffffff169080600001600c9054906101000a900473ffffffffffffffffffffffffffffffffffffffff16905084565b600060089054906101000a900463ffffffff1681565b60608060606000806000600160008863ffffffff1663ffffffff168152602001908152602001600020600101600160008963ffffffff1663ffffffff168152602001908152602001600020600201600160008a63ffffffff1663ffffffff168152602001908152602001600020600301600160008b63ffffffff1663ffffffff16815260200190815260200160002060040160009054906101000a900463ffffffff16600160008c63ffffffff1663ffffffff16815260200190815260200160002060000160009054906101000a900473ffffffffffffffffffffffffffffffffffffffff16600160008d63ffffffff1663ffffffff16815260200190815260200160002060040160049054906101000a900463ffffffff16858054611b7190612c64565b80601f0160208091040260200160405190810160405280929190818152602001828054611b9d90612c64565b8015611bea5780601f10611bbf57610100808354040283529160200191611bea565b820191906000526020600020905b815481529060010190602001808311611bcd57829003601f168201915b50505050509550848054611bfd90612c64565b80601f0160208091040260200160405190810160405280929190818152602001828054611c2990612c64565b8015611c765780601f10611c4b57610100808354040283529160200191611c76565b820191906000526020600020905b815481529060010190602001808311611c5957829003601f168201915b50505050509450838054611c8990612c64565b80601f0160208091040260200160405190810160405280929190818152602001828054611cb590612c64565b8015611d025780601f10611cd757610100808354040283529160200191611d02565b820191906000526020600020905b815481529060010190602001808311611ce557829003601f168201915b5050505050935095509550955095509550955091939550919395565b60016020528060005260406000206000915090508060000160009054906101000a900473ffffffffffffffffffffffffffffffffffffffff1690806001018054611d6790612c64565b80601f0160208091040260200160405190810160405280929190818152602001828054611d9390612c64565b8015611de05780601f10611db557610100808354040283529160200191611de0565b820191906000526020600020905b815481529060010190602001808311611dc357829003601f168201915b505050505090806002018054611df590612c64565b80601f0160208091040260200160405190810160405280929190818152602001828054611e2190612c64565b8015611e6e5780601f10611e4357610100808354040283529160200191611e6e565b820191906000526020600020905b815481529060010190602001808311611e5157829003601f168201915b505050505090806003018054611e8390612c64565b80601f0160208091040260200160405190810160405280929190818152602001828054611eaf90612c64565b8015611efc5780601f10611ed157610100808354040283529160200191611efc565b820191906000526020600020905b815481529060010190602001808311611edf57829003601f168201915b5050505050908060040160009054906101000a900463ffffffff16908060040160049054906101000a900463ffffffff16905086565b6060600460008363ffffffff1663ffffffff168152602001908152602001600020805480602002602001604051908101604052809291908181526020018280548015611fc957602002820191906000526020600020906000905b82829054906101000a900463ffffffff1663ffffffff1681526020019060040190602082600301049283019260010382029150808411611f8c5790505b50505050509050919050565b6000806000806000600360008763ffffffff1663ffffffff1681526020019081526020016000206040518060800160405290816000820160009054906101000a900463ffffffff1663ffffffff1663ffffffff1681526020016000820160049054906101000a900463ffffffff1663ffffffff1663ffffffff1681526020016000820160089054906101000a900463ffffffff1663ffffffff1663ffffffff16815260200160008201600c9054906101000a900473ffffffffffffffffffffffffffffffffffffffff1673ffffffffffffffffffffffffffffffffffffffff1673ffffffffffffffffffffffffffffffffffffffff1681525050905080600001518160200151826040015183606001519450945094509450509193509193565b60008054906101000a900463ffffffff1681565b6000806000600481819054906101000a900463ffffffff168092919061212e90612cc4565b91906101000a81548163ffffffff021916908363ffffffff160217905550905085600260008363ffffffff1663ffffffff1681526020019081526020016000206000019080519060200190612184929190612276565b5084600260008363ffffffff1663ffffffff16815260200190815260200160002060010190805190602001906121bb929190612276565b5083600260008363ffffffff1663ffffffff16815260200190815260200160002060030160006101000a81548173ffffffffffffffffffffffffffffffffffffffff021916908373ffffffffffffffffffffffffffffffffffffffff16021790555082600260008363ffffffff1663ffffffff1681526020019081526020016000206002019080519060200190612253929190612276565b5080915050949350505050565b600060049054906101000a900463ffffffff1681565b82805461228290612c64565b90600052602060002090601f0160209004810192826122a457600085556122eb565b82601f106122bd57805160ff19168380011785556122eb565b828001600101855582156122eb579182015b828111156122ea5782518255916020019190600101906122cf565b5b5090506122f891906122fc565b5090565b5b808211156123155760008160009055506001016122fd565b5090565b6000604051905090565b600080fd5b600080fd5b600063ffffffff82169050919050565b6123468161232d565b811461235157600080fd5b50565b6000813590506123638161233d565b92915050565b6000819050919050565b61237c81612369565b811461238757600080fd5b50565b60008135905061239981612373565b92915050565b600080604083850312156123b6576123b5612323565b5b60006123c485828601612354565b92505060206123d58582860161238a565b9150509250929050565b6123e88161232d565b82525050565b600060208201905061240360008301846123df565b92915050565b60008060006060848603121561242257612421612323565b5b600061243086828701612354565b935050602061244186828701612354565b925050604061245286828701612354565b9150509250925092565b60008115159050919050565b6124718161245c565b82525050565b600060208201905061248c6000830184612468565b92915050565b6000602082840312156124a8576124a7612323565b5b60006124b684828501612354565b91505092915050565b600081519050919050565b600082825260208201905092915050565b60005b838110156124f95780820151818401526020810190506124de565b83811115612508576000848401525b50505050565b6000601f19601f8301169050919050565b600061252a826124bf565b61253481856124ca565b93506125448185602086016124db565b61254d8161250e565b840191505092915050565b600073ffffffffffffffffffffffffffffffffffffffff82169050919050565b600061258382612558565b9050919050565b61259381612578565b82525050565b600060608201905081810360008301526125b3818661251f565b90506125c2602083018561258a565b81810360408301526125d4818461251f565b9050949350505050565b600080fd5b600080fd5b7f4e487b7100000000000000000000000000000000000000000000000000000000600052604160045260246000fd5b6126208261250e565b810181811067ffffffffffffffff8211171561263f5761263e6125e8565b5b80604052505050565b6000612652612319565b905061265e8282612617565b919050565b600067ffffffffffffffff82111561267e5761267d6125e8565b5b6126878261250e565b9050602081019050919050565b82818337600083830152505050565b60006126b66126b184612663565b612648565b9050828152602081018484840111156126d2576126d16125e3565b5b6126dd848285612694565b509392505050565b600082601f8301126126fa576126f96125de565b5b813561270a8482602086016126a3565b91505092915050565b600080600080600060a0868803121561272f5761272e612323565b5b600061273d88828901612354565b955050602086013567ffffffffffffffff81111561275e5761275d612328565b5b61276a888289016126e5565b945050604086013567ffffffffffffffff81111561278b5761278a612328565b5b612797888289016126e5565b935050606086013567ffffffffffffffff8111156127b8576127b7612328565b5b6127c4888289016126e5565b92505060806127d588828901612354565b9150509295509295909350565b600080600080608085870312156127fc576127fb612323565b5b600061280a87828801612354565b945050602085013567ffffffffffffffff81111561282b5761282a612328565b5b612837878288016126e5565b935050604085013567ffffffffffffffff81111561285857612857612328565b5b612864878288016126e5565b925050606085013567ffffffffffffffff81111561288557612884612328565b5b612891878288016126e5565b91505092959194509250565b600060808201905081810360008301526128b7818761251f565b905081810360208301526128cb818661251f565b905081810360408301526128df818561251f565b90506128ee606083018461258a565b95945050505050565b600060808201905061290c60008301876123df565b61291960208301866123df565b61292660408301856123df565b612933606083018461258a565b95945050505050565b600060c0820190508181036000830152612956818961251f565b9050818103602083015261296a818861251f565b9050818103604083015261297e818761251f565b905061298d60608301866123df565b61299a608083018561258a565b6129a760a08301846123df565b979650505050505050565b600060c0820190506129c7600083018961258a565b81810360208301526129d9818861251f565b905081810360408301526129ed818761251f565b90508181036060830152612a01818661251f565b9050612a1060808301856123df565b612a1d60a08301846123df565b979650505050505050565b600081519050919050565b600082825260208201905092915050565b6000819050602082019050919050565b612a5d8161232d565b82525050565b6000612a6f8383612a54565b60208301905092915050565b6000602082019050919050565b6000612a9382612a28565b612a9d8185612a33565b9350612aa883612a44565b8060005b83811015612ad9578151612ac08882612a63565b9750612acb83612a7b565b925050600181019050612aac565b5085935050505092915050565b60006020820190508181036000830152612b008184612a88565b905092915050565b612b1181612578565b8114612b1c57600080fd5b50565b600081359050612b2e81612b08565b92915050565b60008060008060808587031215612b4e57612b4d612323565b5b600085013567ffffffffffffffff811115612b6c57612b6b612328565b5b612b78878288016126e5565b945050602085013567ffffffffffffffff811115612b9957612b98612328565b5b612ba5878288016126e5565b9350506040612bb687828801612b1f565b925050606085013567ffffffffffffffff811115612bd757612bd6612328565b5b612be3878288016126e5565b91505092959194509250565b50565b6000612bff6000836124ca565b9150612c0a82612bef565b600082019050919050565b60006020820190508181036000830152612c2e81612bf2565b9050919050565b7f4e487b7100000000000000000000000000000000000000000000000000000000600052602260045260246000fd5b60006002820490506001821680612c7c57607f821691505b602082108103612c8f57612c8e612c35565b5b50919050565b7f4e487b7100000000000000000000000000000000000000000000000000000000600052601160045260246000fd5b6000612ccf8261232d565b915063ffffffff8203612ce557612ce4612c95565b5b600182019050919050565b600081905092915050565b6000612d06826124bf565b612d108185612cf0565b9350612d208185602086016124db565b80840191505092915050565b6000612d388284612cfb565b915081905092915050565b60008190508160005260206000209050919050565b60008154612d6581612c64565b612d6f8186612cf0565b94506001821660008114612d8a5760018114612d9b57612dce565b60ff19831686528186019350612dce565b612da485612d43565b60005b83811015612dc657815481890152600182019150602081019050612da7565b838801955050505b50505092915050565b6000612de38284612d58565b91508190509291505056fea26469706673582212207b2e09527ec089102c98f47144a1d83d1df5eb7ac9361961266dc1ca64b7db2a64736f6c634300080d0033",
  "immutableReferences": {},
  "source": "// SPDX-License-Identifier: MIT\r\npragma solidity >=0.4.22 <0.9.0;\r\n\r\ncontract supplyChain {\r\n    uint32 public product_id = 0;\r\n    uint32 public participant_id = 0;\r\n    uint32 public owner_id = 0;\r\n\r\n    struct product {\r\n        address ownerAddress;\r\n        string modelNumber;\r\n        string partNumber;\r\n        string serialNumber;\r\n        uint32 cost;\r\n        uint32 mfgTimeStamp;\r\n    }\r\n\r\n    mapping(uint32 => product) public products;\r\n\r\n    struct participant {\r\n        string userName;\r\n        string passWord;\r\n        string participantType;\r\n        address participantAddress;\r\n    }\r\n\r\n    mapping(uint32 => participant) public participants;\r\n\r\n    struct ownership {\r\n        uint32 productId;\r\n        uint32 ownerId;\r\n        uint32 trxTimeStamp;\r\n        address ownerAddress;\r\n    }\r\n\r\n    mapping(uint32 => ownership) public ownerships;\r\n    mapping(uint32 => uint32[]) public productTrack;\r\n\r\n    event TransferOwnership(uint32 productId);\r\n\r\n    function addParticipant(\r\n        string memory _name,\r\n        string memory _pass,\r\n        address _pAdd,\r\n        string memory _pType\r\n    ) public returns (uint32) {\r\n        uint32 userId = participant_id++;\r\n        participants[userId].userName = _name;\r\n        participants[userId].passWord = _pass;\r\n        participants[userId].participantAddress = _pAdd;\r\n        participants[userId].participantType = _pType;\r\n\r\n        return userId;\r\n    }\r\n\r\n    function getParticipant(uint32 _participant_id)\r\n        public\r\n        view\r\n        returns (\r\n            string memory,\r\n            address,\r\n            string memory\r\n        )\r\n    {\r\n        return (\r\n            participants[_participant_id].userName,\r\n            participants[_participant_id].participantAddress,\r\n            participants[_participant_id].participantType\r\n        );\r\n    }\r\n\r\n    function addProduct(\r\n        uint32 _ownerId,\r\n        string memory _modelNumber,\r\n        string memory _partNumber,\r\n        string memory _serialNumber,\r\n        uint32 _productCost\r\n    ) public returns (uint32) {\r\n        if (\r\n            keccak256(\r\n                abi.encodePacked(participants[_ownerId].participantType)\r\n            ) == keccak256(\"Manufacturer\")\r\n        ) {\r\n            uint32 productId = product_id++;\r\n\r\n            products[productId].modelNumber = _modelNumber;\r\n            products[productId].partNumber = _partNumber;\r\n            products[productId].serialNumber = _serialNumber;\r\n            products[productId].cost = _productCost;\r\n            products[productId].ownerAddress = participants[_ownerId]\r\n                .participantAddress;\r\n            products[productId].mfgTimeStamp = uint32(block.timestamp);\r\n\r\n            return productId;\r\n        }\r\n        return 0;\r\n    }\r\n\r\n    modifier onlyOwner(uint32 _productId) {\r\n        require(msg.sender == products[_productId].ownerAddress, \"\");\r\n        _;\r\n    }\r\n\r\n    function getProduct(uint32 _productId)\r\n        public\r\n        view\r\n        returns (\r\n            string memory,\r\n            string memory,\r\n            string memory,\r\n            uint32,\r\n            address,\r\n            uint32\r\n        )\r\n    {\r\n        return (\r\n            products[_productId].modelNumber,\r\n            products[_productId].partNumber,\r\n            products[_productId].serialNumber,\r\n            products[_productId].cost,\r\n            products[_productId].ownerAddress,\r\n            products[_productId].mfgTimeStamp\r\n        );\r\n    }\r\n\r\n    function newOwner(\r\n        uint32 _currentUId,\r\n        uint32 _nextUId,\r\n        uint32 _productId\r\n    ) public onlyOwner(_productId) returns (bool) {\r\n        participant memory currentP = participants[_currentUId];\r\n        participant memory nextP = participants[_nextUId];\r\n        uint32 ownership_id = owner_id++;\r\n\r\n        if (\r\n            keccak256(abi.encodePacked(currentP.participantType)) ==\r\n            keccak256(\"Manufacturer\") &&\r\n            keccak256(abi.encodePacked(nextP.participantType)) ==\r\n            keccak256(\"Supplier\")\r\n        ) {\r\n            ownerships[ownership_id].productId = _productId;\r\n            ownerships[ownership_id].ownerAddress = nextP.participantAddress;\r\n            ownerships[ownership_id].ownerId = _nextUId;\r\n            ownerships[ownership_id].trxTimeStamp = uint32(block.timestamp);\r\n\r\n            products[_productId].ownerAddress = nextP.participantAddress;\r\n            productTrack[_productId].push(ownership_id);\r\n\r\n            emit TransferOwnership(_productId);\r\n            return (true);\r\n        } else if (\r\n            keccak256(abi.encodePacked(currentP.participantType)) ==\r\n            keccak256(\"Supplier\") &&\r\n            keccak256(abi.encodePacked(nextP.participantType)) ==\r\n            keccak256(\"Supplier\")\r\n        ) {\r\n            ownerships[ownership_id].productId = _productId;\r\n            ownerships[ownership_id].ownerAddress = nextP.participantAddress;\r\n            ownerships[ownership_id].ownerId = _nextUId;\r\n            ownerships[ownership_id].trxTimeStamp = uint32(block.timestamp);\r\n\r\n            products[_productId].ownerAddress = nextP.participantAddress;\r\n            productTrack[_productId].push(ownership_id);\r\n\r\n            emit TransferOwnership(_productId);\r\n            return (true);\r\n        } else if (\r\n            keccak256(abi.encodePacked(currentP.participantType)) ==\r\n            keccak256(\"Supplier\") &&\r\n            keccak256(abi.encodePacked(nextP.participantType)) ==\r\n            keccak256(\"Customer\")\r\n        ) {\r\n            ownerships[ownership_id].productId = _productId;\r\n            ownerships[ownership_id].ownerAddress = nextP.participantAddress;\r\n            ownerships[ownership_id].ownerId = _nextUId;\r\n            ownerships[ownership_id].trxTimeStamp = uint32(block.timestamp);\r\n\r\n            products[_productId].ownerAddress = nextP.participantAddress;\r\n            productTrack[_productId].push(ownership_id);\r\n\r\n            emit TransferOwnership(_productId);\r\n            return (true);\r\n        }\r\n        return (false);\r\n    }\r\n\r\n    function getProvenance(uint32 _productId)\r\n        external\r\n        view\r\n        returns (uint32[] memory)\r\n    {\r\n        return productTrack[_productId];\r\n    }\r\n\r\n    function getOwnership(uint32 _regId)\r\n        public\r\n        view\r\n        returns (\r\n            uint32,\r\n            uint32,\r\n            uint32,\r\n            address\r\n        )\r\n    {\r\n        ownership memory r = ownerships[_regId];\r\n        return (r.productId, r.ownerId, r.trxTimeStamp, r.ownerAddress);\r\n    }\r\n\r\n    function authenticateParticipant(\r\n        uint32 _uid,\r\n        string memory _uname,\r\n        string memory _pass,\r\n        string memory _utype\r\n    ) public view returns (bool) {\r\n        if (\r\n            keccak256(abi.encodePacked(participants[_uid].participantType)) ==\r\n            keccak256(abi.encodePacked(_utype))\r\n        ) {\r\n            if (\r\n                keccak256(abi.encodePacked(participants[_uid].userName)) ==\r\n                keccak256(abi.encodePacked(_uname))\r\n            ) {\r\n                if (\r\n                    keccak256(abi.encodePacked(participants[_uid].passWord)) ==\r\n                    keccak256(abi.encodePacked(_pass))\r\n                ) {\r\n                    return (true);\r\n                }\r\n            }\r\n        }\r\n\r\n        return (false);\r\n    }\r\n}\r\n",
  "sourcePath": "C:\\Users\\ErangaGayashanBISTEC\\workspaces\\dapps-workspace\\blockchain-supplychain-dapp\\contracts\\SupplyChain.sol",
  "compiler": {
    "name": "solc",
    "version": "0.8.13+commit.abaa5c0e.Emscripten.clang"
  },
  "schemaVersion": "3.4.9",
  "updatedAt": "2022-08-14T15:57:17.083Z",
  "devdoc": {
    "kind": "dev",
    "methods": {},
    "version": 1
  },
  "userdoc": {
    "kind": "user",
    "methods": {},
    "version": 1
  }
}